{
  "contractName": "EasyMoneyRacing",
  "abi": [
    {
      "inputs": [],
      "stateMutability": "nonpayable",
      "type": "constructor"
    },
    {
      "anonymous": false,
      "inputs": [
        {
          "indexed": true,
          "internalType": "address",
          "name": "userAddress",
          "type": "address"
        },
        {
          "indexed": false,
          "internalType": "uint256",
          "name": "amount",
          "type": "uint256"
        }
      ],
      "name": "Participate",
      "type": "event"
    },
    {
      "anonymous": false,
      "inputs": [
        {
          "indexed": true,
          "internalType": "address",
          "name": "userAddress",
          "type": "address"
        },
        {
          "indexed": false,
          "internalType": "uint256",
          "name": "amount",
          "type": "uint256"
        },
        {
          "indexed": false,
          "internalType": "string",
          "name": "name",
          "type": "string"
        }
      ],
      "name": "Retrive",
      "type": "event"
    },
    {
      "inputs": [],
      "name": "endBlock",
      "outputs": [
        {
          "internalType": "uint256",
          "name": "",
          "type": "uint256"
        }
      ],
      "stateMutability": "view",
      "type": "function",
      "constant": true
    },
    {
      "inputs": [],
      "name": "totalSentMoney",
      "outputs": [
        {
          "internalType": "uint256",
          "name": "",
          "type": "uint256"
        }
      ],
      "stateMutability": "view",
      "type": "function",
      "constant": true
    },
    {
      "inputs": [],
      "name": "winnerName",
      "outputs": [
        {
          "internalType": "string",
          "name": "",
          "type": "string"
        }
      ],
      "stateMutability": "view",
      "type": "function",
      "constant": true
    },
    {
      "inputs": [],
      "name": "sendMoney",
      "outputs": [],
      "stateMutability": "payable",
      "type": "function",
      "payable": true
    },
    {
      "inputs": [],
      "name": "retrieveMoney",
      "outputs": [],
      "stateMutability": "nonpayable",
      "type": "function"
    },
    {
      "inputs": [
        {
          "internalType": "string",
          "name": "name",
          "type": "string"
        }
      ],
      "name": "setName",
      "outputs": [],
      "stateMutability": "nonpayable",
      "type": "function"
    },
    {
      "inputs": [
        {
          "internalType": "string",
          "name": "name",
          "type": "string"
        }
      ],
      "name": "setNameWithoutMathUtils",
      "outputs": [],
      "stateMutability": "nonpayable",
      "type": "function"
    },
    {
      "inputs": [],
      "name": "getTotalParticipate",
      "outputs": [
        {
          "internalType": "uint256",
          "name": "",
          "type": "uint256"
        }
      ],
      "stateMutability": "view",
      "type": "function",
      "constant": true
    },
    {
      "inputs": [],
      "name": "getTotalMoney",
      "outputs": [
        {
          "internalType": "uint256",
          "name": "",
          "type": "uint256"
        }
      ],
      "stateMutability": "view",
      "type": "function",
      "constant": true
    },
    {
      "inputs": [],
      "name": "showWinner",
      "outputs": [
        {
          "internalType": "string",
          "name": "",
          "type": "string"
        }
      ],
      "stateMutability": "view",
      "type": "function",
      "constant": true
    }
  ],
  "bytecode": "0x608060405260644362000013919062000068565b60025560006003553480156200002857600080fd5b50620000c5565b6000819050919050565b7f4e487b7100000000000000000000000000000000000000000000000000000000600052601160045260246000fd5b600062000075826200002f565b915062000082836200002f565b9250827fffffffffffffffffffffffffffffffffffffffffffffffffffffffffffffffff03821115620000ba57620000b962000039565b5b828201905092915050565b611c0780620000d56000396000f3fe6080604052600436106100915760003560e01c8063c47f002711610059578063c47f00271461016d578063cbedbf5a14610196578063d5727526146101a0578063e2ba53f0146101c9578063ed56d526146101f457610091565b8063054ffab614610096578063083c6323146100c1578063254b3405146100ec578063b7e0326414610117578063bb1cbef414610142575b600080fd5b3480156100a257600080fd5b506100ab61020b565b6040516100b89190611493565b60405180910390f35b3480156100cd57600080fd5b506100d66102ca565b6040516100e39190611493565b60405180910390f35b3480156100f857600080fd5b506101016102d0565b60405161010e9190611493565b60405180910390f35b34801561012357600080fd5b5061012c6102d6565b6040516101399190611547565b60405180910390f35b34801561014e57600080fd5b506101576103b0565b6040516101649190611493565b60405180910390f35b34801561017957600080fd5b50610194600480360381019061018f91906116b2565b6103bd565b005b61019e6108e3565b005b3480156101ac57600080fd5b506101c760048036038101906101c291906116b2565b610ac7565b005b3480156101d557600080fd5b506101de61105e565b6040516101eb9190611547565b60405180910390f35b34801561020057600080fd5b506102096110ec565b005b6000806000905060005b6001805490508110156102c25760008060018381548110610239576102386116fb565b5b9060005260206000200160009054906101000a900473ffffffffffffffffffffffffffffffffffffffff1673ffffffffffffffffffffffffffffffffffffffff1673ffffffffffffffffffffffffffffffffffffffff16815260200190815260200160002060000154826102ad9190611759565b915080806102ba906117af565b915050610215565b508091505090565b60025481565b60035481565b606060025443101561031f576040518060400160405280601181526020017f52616365207374696c6c20676f696e672e00000000000000000000000000000081525090506103ad565b6004805461032c90611827565b80601f016020809104026020016040519081016040528092919081815260200182805461035890611827565b80156103a55780601f1061037a576101008083540402835291602001916103a5565b820191906000526020600020905b81548152906001019060200180831161038857829003601f168201915b505050505090505b90565b6000600180549050905090565b600254431015610402576040517f08c379a00000000000000000000000000000000000000000000000000000000081526004016103f9906118a5565b60405180910390fd5b60008060003373ffffffffffffffffffffffffffffffffffffffff1673ffffffffffffffffffffffffffffffffffffffff1681526020019081526020016000206000015411610486576040517f08c379a000000000000000000000000000000000000000000000000000000000815260040161047d90611911565b60405180910390fd5b600015156000803373ffffffffffffffffffffffffffffffffffffffff1673ffffffffffffffffffffffffffffffffffffffff16815260200190815260200160002060010160009054906101000a900460ff1615151461051b576040517f08c379a00000000000000000000000000000000000000000000000000000000081526004016105129061197d565b60405180910390fd5b60006001600081548110610532576105316116fb565b5b9060005260206000200160009054906101000a900473ffffffffffffffffffffffffffffffffffffffff16905060008060006001600081548110610579576105786116fb565b5b9060005260206000200160009054906101000a900473ffffffffffffffffffffffffffffffffffffffff1673ffffffffffffffffffffffffffffffffffffffff1673ffffffffffffffffffffffffffffffffffffffff1681526020019081526020016000206000015490506000600190505b6001805490508110156106e55760008290506106868360008060018681548110610618576106176116fb565b5b9060005260206000200160009054906101000a900473ffffffffffffffffffffffffffffffffffffffff1673ffffffffffffffffffffffffffffffffffffffff1673ffffffffffffffffffffffffffffffffffffffff168152602001908152602001600020600001546113bd565b92508281146106d157600182815481106106a3576106a26116fb565b5b9060005260206000200160009054906101000a900473ffffffffffffffffffffffffffffffffffffffff1693505b5080806106dd906117af565b9150506105eb565b508173ffffffffffffffffffffffffffffffffffffffff163373ffffffffffffffffffffffffffffffffffffffff1614610754576040517f08c379a000000000000000000000000000000000000000000000000000000000815260040161074b906119e9565b60405180910390fd5b826004908051906020019061076a9291906113d7565b5060016000803373ffffffffffffffffffffffffffffffffffffffff1673ffffffffffffffffffffffffffffffffffffffff16815260200190815260200160002060010160006101000a81548160ff0219169083151502179055503373ffffffffffffffffffffffffffffffffffffffff166108fc6000803373ffffffffffffffffffffffffffffffffffffffff1673ffffffffffffffffffffffffffffffffffffffff168152602001908152602001600020600001549081150290604051600060405180830381858888f1935050505015801561084c573d6000803e3d6000fd5b503373ffffffffffffffffffffffffffffffffffffffff167fcc281b3b9284627aaeeeb95cf01500822cc23fcf94ae8c9c30feb8f852bcf9c26000803373ffffffffffffffffffffffffffffffffffffffff1673ffffffffffffffffffffffffffffffffffffffff16815260200190815260200160002060000154856040516108d6929190611a09565b60405180910390a2505050565b6002544310610927576040517f08c379a000000000000000000000000000000000000000000000000000000000815260040161091e90611a85565b60405180910390fd5b6000341161096a576040517f08c379a000000000000000000000000000000000000000000000000000000000815260040161096190611af1565b60405180910390fd5b6000803373ffffffffffffffffffffffffffffffffffffffff1673ffffffffffffffffffffffffffffffffffffffff1681526020019081526020016000206000015460001415610a18576001339080600181540180825580915050600190039060005260206000200160009091909190916101000a81548173ffffffffffffffffffffffffffffffffffffffff021916908373ffffffffffffffffffffffffffffffffffffffff1602179055505b346000803373ffffffffffffffffffffffffffffffffffffffff1673ffffffffffffffffffffffffffffffffffffffff168152602001908152602001600020600001819055503460036000828254610a709190611759565b925050819055503373ffffffffffffffffffffffffffffffffffffffff167feb353a6084f42c4569f7fe0e62ec9a9a107f0453a8f76735dd47ef68dcfcce3f34604051610abd9190611493565b60405180910390a2565b600254431015610b0c576040517f08c379a0000000000000000000000000000000000000000000000000000000008152600401610b0390611b5d565b60405180910390fd5b60008060003373ffffffffffffffffffffffffffffffffffffffff1673ffffffffffffffffffffffffffffffffffffffff1681526020019081526020016000206000015411610b90576040517f08c379a0000000000000000000000000000000000000000000000000000000008152600401610b8790611911565b60405180910390fd5b600015156000803373ffffffffffffffffffffffffffffffffffffffff1673ffffffffffffffffffffffffffffffffffffffff16815260200190815260200160002060010160009054906101000a900460ff16151514610c25576040517f08c379a0000000000000000000000000000000000000000000000000000000008152600401610c1c9061197d565b60405180910390fd5b60006001600081548110610c3c57610c3b6116fb565b5b9060005260206000200160009054906101000a900473ffffffffffffffffffffffffffffffffffffffff16905060008060006001600081548110610c8357610c826116fb565b5b9060005260206000200160009054906101000a900473ffffffffffffffffffffffffffffffffffffffff1673ffffffffffffffffffffffffffffffffffffffff1673ffffffffffffffffffffffffffffffffffffffff1681526020019081526020016000206000015490506000600190505b600180549050811015610e605760008060018381548110610d1957610d186116fb565b5b9060005260206000200160009054906101000a900473ffffffffffffffffffffffffffffffffffffffff1673ffffffffffffffffffffffffffffffffffffffff1673ffffffffffffffffffffffffffffffffffffffff16815260200190815260200160002060000154821015610e4d5760008060018381548110610da057610d9f6116fb565b5b9060005260206000200160009054906101000a900473ffffffffffffffffffffffffffffffffffffffff1673ffffffffffffffffffffffffffffffffffffffff1673ffffffffffffffffffffffffffffffffffffffff16815260200190815260200160002060000154915060018181548110610e1f57610e1e6116fb565b5b9060005260206000200160009054906101000a900473ffffffffffffffffffffffffffffffffffffffff1692505b8080610e58906117af565b915050610cf5565b508173ffffffffffffffffffffffffffffffffffffffff163373ffffffffffffffffffffffffffffffffffffffff1614610ecf576040517f08c379a0000000000000000000000000000000000000000000000000000000008152600401610ec6906119e9565b60405180910390fd5b8260049080519060200190610ee59291906113d7565b5060016000803373ffffffffffffffffffffffffffffffffffffffff1673ffffffffffffffffffffffffffffffffffffffff16815260200190815260200160002060010160006101000a81548160ff0219169083151502179055503373ffffffffffffffffffffffffffffffffffffffff166108fc6000803373ffffffffffffffffffffffffffffffffffffffff1673ffffffffffffffffffffffffffffffffffffffff168152602001908152602001600020600001549081150290604051600060405180830381858888f19350505050158015610fc7573d6000803e3d6000fd5b503373ffffffffffffffffffffffffffffffffffffffff167fcc281b3b9284627aaeeeb95cf01500822cc23fcf94ae8c9c30feb8f852bcf9c26000803373ffffffffffffffffffffffffffffffffffffffff1673ffffffffffffffffffffffffffffffffffffffff1681526020019081526020016000206000015485604051611051929190611a09565b60405180910390a2505050565b6004805461106b90611827565b80601f016020809104026020016040519081016040528092919081815260200182805461109790611827565b80156110e45780601f106110b9576101008083540402835291602001916110e4565b820191906000526020600020905b8154815290600101906020018083116110c757829003601f168201915b505050505081565b600254431015611131576040517f08c379a0000000000000000000000000000000000000000000000000000000008152600401611128906118a5565b60405180910390fd5b60008060003373ffffffffffffffffffffffffffffffffffffffff1673ffffffffffffffffffffffffffffffffffffffff16815260200190815260200160002060000154116111b5576040517f08c379a00000000000000000000000000000000000000000000000000000000081526004016111ac90611911565b60405180910390fd5b600015156000803373ffffffffffffffffffffffffffffffffffffffff1673ffffffffffffffffffffffffffffffffffffffff16815260200190815260200160002060010160009054906101000a900460ff1615151461124a576040517f08c379a00000000000000000000000000000000000000000000000000000000081526004016112419061197d565b60405180910390fd5b60016000803373ffffffffffffffffffffffffffffffffffffffff1673ffffffffffffffffffffffffffffffffffffffff16815260200190815260200160002060010160006101000a81548160ff0219169083151502179055503373ffffffffffffffffffffffffffffffffffffffff166108fc6000803373ffffffffffffffffffffffffffffffffffffffff1673ffffffffffffffffffffffffffffffffffffffff168152602001908152602001600020600001549081150290604051600060405180830381858888f1935050505015801561132b573d6000803e3d6000fd5b503373ffffffffffffffffffffffffffffffffffffffff167fcc281b3b9284627aaeeeb95cf01500822cc23fcf94ae8c9c30feb8f852bcf9c26000803373ffffffffffffffffffffffffffffffffffffffff1673ffffffffffffffffffffffffffffffffffffffff168152602001908152602001600020600001546040516113b39190611ba3565b60405180910390a2565b6000818310156113cd57816113cf565b825b905092915050565b8280546113e390611827565b90600052602060002090601f016020900481019282611405576000855561144c565b82601f1061141e57805160ff191683800117855561144c565b8280016001018555821561144c579182015b8281111561144b578251825591602001919060010190611430565b5b509050611459919061145d565b5090565b5b8082111561147657600081600090555060010161145e565b5090565b6000819050919050565b61148d8161147a565b82525050565b60006020820190506114a86000830184611484565b92915050565b600081519050919050565b600082825260208201905092915050565b60005b838110156114e85780820151818401526020810190506114cd565b838111156114f7576000848401525b50505050565b6000601f19601f8301169050919050565b6000611519826114ae565b61152381856114b9565b93506115338185602086016114ca565b61153c816114fd565b840191505092915050565b60006020820190508181036000830152611561818461150e565b905092915050565b6000604051905090565b600080fd5b600080fd5b600080fd5b600080fd5b7f4e487b7100000000000000000000000000000000000000000000000000000000600052604160045260246000fd5b6115bf826114fd565b810181811067ffffffffffffffff821117156115de576115dd611587565b5b80604052505050565b60006115f1611569565b90506115fd82826115b6565b919050565b600067ffffffffffffffff82111561161d5761161c611587565b5b611626826114fd565b9050602081019050919050565b82818337600083830152505050565b600061165561165084611602565b6115e7565b90508281526020810184848401111561167157611670611582565b5b61167c848285611633565b509392505050565b600082601f8301126116995761169861157d565b5b81356116a9848260208601611642565b91505092915050565b6000602082840312156116c8576116c7611573565b5b600082013567ffffffffffffffff8111156116e6576116e5611578565b5b6116f284828501611684565b91505092915050565b7f4e487b7100000000000000000000000000000000000000000000000000000000600052603260045260246000fd5b7f4e487b7100000000000000000000000000000000000000000000000000000000600052601160045260246000fd5b60006117648261147a565b915061176f8361147a565b9250827fffffffffffffffffffffffffffffffffffffffffffffffffffffffffffffffff038211156117a4576117a361172a565b5b828201905092915050565b60006117ba8261147a565b91507fffffffffffffffffffffffffffffffffffffffffffffffffffffffffffffffff8214156117ed576117ec61172a565b5b600182019050919050565b7f4e487b7100000000000000000000000000000000000000000000000000000000600052602260045260246000fd5b6000600282049050600182168061183f57607f821691505b60208210811415611853576118526117f8565b5b50919050565b7f52616365207374696c6c20676f696e672e000000000000000000000000000000600082015250565b600061188f6011836114b9565b915061189a82611859565b602082019050919050565b600060208201905081810360008301526118be81611882565b9050919050565b7f5573657220646964206e6f742070617274696369706174652e00000000000000600082015250565b60006118fb6019836114b9565b9150611906826118c5565b602082019050919050565b6000602082019050818103600083015261192a816118ee565b9050919050565b7f4d6f6e65792068617665207265747269657665642e0000000000000000000000600082015250565b60006119676015836114b9565b915061197282611931565b602082019050919050565b600060208201905081810360008301526119968161195a565b9050919050565b7f4f6e6c792077696e6e65722063616e20736574206e616d652e00000000000000600082015250565b60006119d36019836114b9565b91506119de8261199d565b602082019050919050565b60006020820190508181036000830152611a02816119c6565b9050919050565b6000604082019050611a1e6000830185611484565b8181036020830152611a30818461150e565b90509392505050565b7f52616365206861766520656e6465642e00000000000000000000000000000000600082015250565b6000611a6f6010836114b9565b9150611a7a82611a39565b602082019050919050565b60006020820190508181036000830152611a9e81611a62565b9050919050565b7f4e6f206d6f6e65792068617665206265656e2073656e742e0000000000000000600082015250565b6000611adb6018836114b9565b9150611ae682611aa5565b602082019050919050565b60006020820190508181036000830152611b0a81611ace565b9050919050565b7f52616365207374696c6c20676f696e6700000000000000000000000000000000600082015250565b6000611b476010836114b9565b9150611b5282611b11565b602082019050919050565b60006020820190508181036000830152611b7681611b3a565b9050919050565b50565b6000611b8d6000836114b9565b9150611b9882611b7d565b600082019050919050565b6000604082019050611bb86000830184611484565b8181036020830152611bc981611b80565b90509291505056fea2646970667358221220d807dfadbcf0f847da6fe80ee6a9a5d1ede5662c76691ef6a9a1fe86ca18989664736f6c634300080b0033",
  "immutableReferences": {},
  "source": "// contracts/EasyMoneyRacing.sol\n// SPDX-License-Identifier: GPL-3.0\n// version 0.0.1 \n// [x] 1 race/contract race will end in block(x) by x specify in contract code.\n// [x] After race end no one will be able to participate the race.\n// [x] All users participate will be able to retrive money back when race end. (protect against barrow other participated money)\n// [x] The race winner will be able to retrive money with name set to blockchain. (Can be only set 1 time) \n// [x] The winner will not be able to set name if The winner choose to only retrived money.\n// [x] In this version will be a bug that a participate that send money again will replace their record.\n// [x] The replaced money will remain in contract without retrieve replaced money function implement.\n// [x] The money replaced bug will be solved in version 0.1.0 and so on.\n// [x] Write unit test for none participate competition.\n// [x] Write unit test with ganache revert after test for non participate competition.\npragma solidity 0.8.11; \n\n// Changed from 'import \"@openzeppelin/contracts/utils/math/Math.sol\";' to avoid editor error.\nimport \"../node_modules/@openzeppelin/contracts/utils/math/Math.sol\";\n\ncontract EasyMoneyRacing {\n\n    // Mapping tutorial: https://medium.com/coinmonks/solidity-tutorial-all-about-mappings-29a12269ee14\n    struct UserData {\n        // User participated money amount\n        uint256 money;\n        // User retrived money status\n        bool retriveStatus;\n    }\n\n    // dictionary that maps addresses to user data\n    mapping (address => UserData) private usersData;\n    \n    // Participate user address\n    address[] private usersAddress;\n\n    // Set default end block\n    // https://docs.soliditylang.org/en/v0.4.24/units-and-global-variables.html\n    // block.number =  the block that the contract is mined in.\n    uint public endBlock = block.number + 100;\n    \n    // For version before 0.1.0: Just for record all money contract received.\n    uint256 public totalSentMoney = 0;\n\n    // Set default end block\n    string public winnerName;\n\n    // Events - publicize actions to external listeners\n    event Participate(address indexed userAddress, uint amount);\n    event Retrive(address indexed userAddress, uint amount, string name);\n\n    constructor(){\n    }\n\n    // external https://ethereum.stackexchange.com/questions/19380/external-vs-public-best-practices\n    // https://docs.soliditylang.org/en/v0.8.11/contracts.html#:~:text=External%20functions%20are%20part%20of,other%20contracts%20and%20via%20transactions.\n    function sendMoney() external payable {\n        require(block.number < endBlock, \"Race have ended.\");\n        require(msg.value > 0, \"No money have been sent.\");\n        \n        // Record account in array for looping\n        if (0 == usersData[msg.sender].money) {\n            usersAddress.push(msg.sender);\n        }\n\n        // For version: 0.1.0\n        // usersData[msg.sender].money = usersData[msg.sender].money + msg.value;\n        usersData[msg.sender].money = msg.value;\n        \n        totalSentMoney += msg.value;\n\n        // Broadcast participate event\n        emit Participate(msg.sender, msg.value); // fire event\n\n        // no return\n        // https://stackoverflow.com/questions/36807720/how-to-get-return-values-when-function-with-argument-is-called\n        // https://medium.com/coinmonks/return-values-in-solidity-contracts-2a034b31d553\n    }\n\n    function retrieveMoney() external {\n        require(block.number >= endBlock, \"Race still going.\");\n        require(usersData[msg.sender].money > 0, \"User did not participate.\");\n        // the require statement below didn't filter non participate user.\n        // default value in mapping will exist and bool will be false\n        require(usersData[msg.sender].retriveStatus == false, \"Money have retrieved.\");\n        usersData[msg.sender].retriveStatus = true;\n\n        // Revert on failed\n        // cast object type to payable\n        // https://stackoverflow.com/questions/67341914/error-send-and-transfer-are-only-available-for-objects-of-type-address-payable\n        payable(msg.sender).transfer(usersData[msg.sender].money);\n\n        // Broadcast retrive event\n        emit Retrive(msg.sender, usersData[msg.sender].money, \"\"); // fire event\n    }\n\n    // one participate gas: 66558\n    // 100 participate gas: 564832\n    // Should fix by find winner when reveice money from participation\n    function setName(string memory name) external {\n        require(block.number >= endBlock, \"Race still going.\");\n        require(usersData[msg.sender].money > 0, \"User did not participate.\");\n        require(usersData[msg.sender].retriveStatus == false, \"Money have retrieved.\");\n        address winner = usersAddress[0];\n        uint256 mostMoney = usersData[usersAddress[0]].money;\n        for(uint256 userIndex = 1; userIndex < usersAddress.length; userIndex++) {\n            uint256 previousMostMoney = mostMoney;\n            mostMoney = Math.max(mostMoney, usersData[usersAddress[userIndex]].money);\n            if (previousMostMoney != mostMoney)\n            {\n                winner = usersAddress[userIndex];\n            }\n        }\n        require(msg.sender == winner, \"Only winner can set name.\");\n        winnerName = name;\n        usersData[msg.sender].retriveStatus = true;\n\n        // Revert on failed\n        // cast object type to payable\n        // https://stackoverflow.com/questions/67341914/error-send-and-transfer-are-only-available-for-objects-of-type-address-payable\n        payable(msg.sender).transfer(usersData[msg.sender].money);\n\n        // Broadcast retrive event\n        emit Retrive(msg.sender, usersData[msg.sender].money, name); // fire event\n    }\n    \n    // set Name without using openzippelin math utils\n    // one participate gas: 66558\n    // 100 participate gas: 580764\n    function setNameWithoutMathUtils(string memory name) external {\n        require(block.number >= endBlock, \"Race still going\");\n        require(usersData[msg.sender].money > 0, \"User did not participate.\");\n        require(usersData[msg.sender].retriveStatus == false, \"Money have retrieved.\");\n        address winner = usersAddress[0];\n        uint256 mostMoney = usersData[usersAddress[0]].money;\n        for(uint256 userIndex = 1; userIndex < usersAddress.length; userIndex++) {\n            if (mostMoney < usersData[usersAddress[userIndex]].money) {\n                mostMoney = usersData[usersAddress[userIndex]].money;\n                winner = usersAddress[userIndex];\n            }\n        }\n        require(msg.sender == winner, \"Only winner can set name.\");\n        winnerName = name;\n        usersData[msg.sender].retriveStatus = true;\n\n        // Revert on failed\n        // cast object type to payable\n        // https://stackoverflow.com/questions/67341914/error-send-and-transfer-are-only-available-for-objects-of-type-address-payable\n        payable(msg.sender).transfer(usersData[msg.sender].money);\n\n        // Broadcast retrive event\n        emit Retrive(msg.sender, usersData[msg.sender].money, name); // fire event\n    }\n\n    function getTotalParticipate() public view returns(uint256) {\n        return usersAddress.length;\n    }\n    \n    function getTotalMoney() public view returns(uint256) {\n        uint256 totalMoney = 0;\n        for(uint256 userIndex; userIndex < usersAddress.length; userIndex++)\n        {\n            totalMoney += usersData[usersAddress[userIndex]].money;\n        }\n        return totalMoney;\n    }\n    \n    function showWinner() public view returns(string memory) {\n        if (block.number < endBlock)\n        {\n            return \"Race still going.\";\n        }\n        return winnerName;\n    }\n}",
  "sourcePath": "/home/user/workspace/solidity/EasyMoneyRacing/contracts/EasyMoneyRacing.sol",
  "compiler": {
    "name": "solc",
    "version": "0.8.11+commit.d7f03943.Emscripten.clang"
  },
  "schemaVersion": "3.4.4",
  "updatedAt": "2022-02-11T01:56:26.241Z",
  "networkType": "ethereum",
  "devdoc": {
    "kind": "dev",
    "methods": {},
    "version": 1
  },
  "userdoc": {
    "kind": "user",
    "methods": {},
    "version": 1
  }
}